{
  "contractName": "Nft",
  "abi": [
    {
      "inputs": [],
      "stateMutability": "nonpayable",
      "type": "constructor"
    },
    {
      "anonymous": false,
      "inputs": [
        {
          "indexed": true,
          "internalType": "address",
          "name": "owner",
          "type": "address"
        },
        {
          "indexed": true,
          "internalType": "address",
          "name": "approved",
          "type": "address"
        },
        {
          "indexed": true,
          "internalType": "uint256",
          "name": "tokenId",
          "type": "uint256"
        }
      ],
      "name": "Approval",
      "type": "event"
    },
    {
      "anonymous": false,
      "inputs": [
        {
          "indexed": true,
          "internalType": "address",
          "name": "owner",
          "type": "address"
        },
        {
          "indexed": true,
          "internalType": "address",
          "name": "operator",
          "type": "address"
        },
        {
          "indexed": false,
          "internalType": "bool",
          "name": "approved",
          "type": "bool"
        }
      ],
      "name": "ApprovalForAll",
      "type": "event"
    },
    {
      "anonymous": false,
      "inputs": [
        {
          "indexed": true,
          "internalType": "address",
          "name": "previousOwner",
          "type": "address"
        },
        {
          "indexed": true,
          "internalType": "address",
          "name": "newOwner",
          "type": "address"
        }
      ],
      "name": "OwnershipTransferred",
      "type": "event"
    },
    {
      "anonymous": false,
      "inputs": [
        {
          "indexed": true,
          "internalType": "address",
          "name": "from",
          "type": "address"
        },
        {
          "indexed": true,
          "internalType": "address",
          "name": "to",
          "type": "address"
        },
        {
          "indexed": true,
          "internalType": "uint256",
          "name": "tokenId",
          "type": "uint256"
        }
      ],
      "name": "Transfer",
      "type": "event"
    },
    {
      "inputs": [
        {
          "internalType": "address",
          "name": "to",
          "type": "address"
        },
        {
          "internalType": "uint256",
          "name": "tokenId",
          "type": "uint256"
        }
      ],
      "name": "approve",
      "outputs": [],
      "stateMutability": "nonpayable",
      "type": "function"
    },
    {
      "inputs": [
        {
          "internalType": "address",
          "name": "owner",
          "type": "address"
        }
      ],
      "name": "balanceOf",
      "outputs": [
        {
          "internalType": "uint256",
          "name": "",
          "type": "uint256"
        }
      ],
      "stateMutability": "view",
      "type": "function",
      "constant": true
    },
    {
      "inputs": [
        {
          "internalType": "uint256",
          "name": "tokenId",
          "type": "uint256"
        }
      ],
      "name": "getApproved",
      "outputs": [
        {
          "internalType": "address",
          "name": "",
          "type": "address"
        }
      ],
      "stateMutability": "view",
      "type": "function",
      "constant": true
    },
    {
      "inputs": [
        {
          "internalType": "address",
          "name": "owner",
          "type": "address"
        },
        {
          "internalType": "address",
          "name": "operator",
          "type": "address"
        }
      ],
      "name": "isApprovedForAll",
      "outputs": [
        {
          "internalType": "bool",
          "name": "",
          "type": "bool"
        }
      ],
      "stateMutability": "view",
      "type": "function",
      "constant": true
    },
    {
      "inputs": [],
      "name": "name",
      "outputs": [
        {
          "internalType": "string",
          "name": "",
          "type": "string"
        }
      ],
      "stateMutability": "view",
      "type": "function",
      "constant": true
    },
    {
      "inputs": [],
      "name": "owner",
      "outputs": [
        {
          "internalType": "address",
          "name": "",
          "type": "address"
        }
      ],
      "stateMutability": "view",
      "type": "function",
      "constant": true
    },
    {
      "inputs": [
        {
          "internalType": "uint256",
          "name": "tokenId",
          "type": "uint256"
        }
      ],
      "name": "ownerOf",
      "outputs": [
        {
          "internalType": "address",
          "name": "",
          "type": "address"
        }
      ],
      "stateMutability": "view",
      "type": "function",
      "constant": true
    },
    {
      "inputs": [],
      "name": "renounceOwnership",
      "outputs": [],
      "stateMutability": "nonpayable",
      "type": "function"
    },
    {
      "inputs": [
        {
          "internalType": "address",
          "name": "from",
          "type": "address"
        },
        {
          "internalType": "address",
          "name": "to",
          "type": "address"
        },
        {
          "internalType": "uint256",
          "name": "tokenId",
          "type": "uint256"
        }
      ],
      "name": "safeTransferFrom",
      "outputs": [],
      "stateMutability": "nonpayable",
      "type": "function"
    },
    {
      "inputs": [
        {
          "internalType": "address",
          "name": "from",
          "type": "address"
        },
        {
          "internalType": "address",
          "name": "to",
          "type": "address"
        },
        {
          "internalType": "uint256",
          "name": "tokenId",
          "type": "uint256"
        },
        {
          "internalType": "bytes",
          "name": "_data",
          "type": "bytes"
        }
      ],
      "name": "safeTransferFrom",
      "outputs": [],
      "stateMutability": "nonpayable",
      "type": "function"
    },
    {
      "inputs": [
        {
          "internalType": "address",
          "name": "operator",
          "type": "address"
        },
        {
          "internalType": "bool",
          "name": "approved",
          "type": "bool"
        }
      ],
      "name": "setApprovalForAll",
      "outputs": [],
      "stateMutability": "nonpayable",
      "type": "function"
    },
    {
      "inputs": [
        {
          "internalType": "bytes4",
          "name": "interfaceId",
          "type": "bytes4"
        }
      ],
      "name": "supportsInterface",
      "outputs": [
        {
          "internalType": "bool",
          "name": "",
          "type": "bool"
        }
      ],
      "stateMutability": "view",
      "type": "function",
      "constant": true
    },
    {
      "inputs": [],
      "name": "symbol",
      "outputs": [
        {
          "internalType": "string",
          "name": "",
          "type": "string"
        }
      ],
      "stateMutability": "view",
      "type": "function",
      "constant": true
    },
    {
      "inputs": [
        {
          "internalType": "address",
          "name": "from",
          "type": "address"
        },
        {
          "internalType": "address",
          "name": "to",
          "type": "address"
        },
        {
          "internalType": "uint256",
          "name": "tokenId",
          "type": "uint256"
        }
      ],
      "name": "transferFrom",
      "outputs": [],
      "stateMutability": "nonpayable",
      "type": "function"
    },
    {
      "inputs": [
        {
          "internalType": "address",
          "name": "newOwner",
          "type": "address"
        }
      ],
      "name": "transferOwnership",
      "outputs": [],
      "stateMutability": "nonpayable",
      "type": "function"
    },
    {
      "inputs": [
        {
          "internalType": "address",
          "name": "to",
          "type": "address"
        },
        {
          "internalType": "string",
          "name": "uri",
          "type": "string"
        }
      ],
      "name": "safeMint",
      "outputs": [],
      "stateMutability": "nonpayable",
      "type": "function"
    },
    {
      "inputs": [
        {
          "internalType": "string",
          "name": "metadataUri",
          "type": "string"
        }
      ],
      "name": "payToMint",
      "outputs": [
        {
          "internalType": "uint256",
          "name": "",
          "type": "uint256"
        }
      ],
      "stateMutability": "payable",
      "type": "function",
      "payable": true
    },
    {
      "inputs": [
        {
          "internalType": "string",
          "name": "uri",
          "type": "string"
        }
      ],
      "name": "isContentOwned",
      "outputs": [
        {
          "internalType": "bool",
          "name": "",
          "type": "bool"
        }
      ],
      "stateMutability": "view",
      "type": "function",
      "constant": true
    },
    {
      "inputs": [
        {
          "internalType": "uint256",
          "name": "tokenId",
          "type": "uint256"
        }
      ],
      "name": "tokenURI",
      "outputs": [
        {
          "internalType": "string",
          "name": "",
          "type": "string"
        }
      ],
      "stateMutability": "view",
      "type": "function",
      "constant": true
    }
  ],
  "bytecode": "0x60806040523480156200001157600080fd5b506040518060400160405280600381526020017f4e667400000000000000000000000000000000000000000000000000000000008152506040518060400160405280600381526020017f4e66740000000000000000000000000000000000000000000000000000000000815250816000908051906020019062000096929190620001a6565b508060019080519060200190620000af929190620001a6565b505050620000d2620000c6620000d860201b60201c565b620000e060201b60201c565b620002ba565b600033905090565b6000600760009054906101000a900473ffffffffffffffffffffffffffffffffffffffff16905081600760006101000a81548173ffffffffffffffffffffffffffffffffffffffff021916908373ffffffffffffffffffffffffffffffffffffffff1602179055508173ffffffffffffffffffffffffffffffffffffffff168173ffffffffffffffffffffffffffffffffffffffff167f8be0079c531659141344cd1fd0a4f28419497f9722a3daafe3b4186f6b6457e060405160405180910390a35050565b828054620001b49062000285565b90600052602060002090601f016020900481019282620001d8576000855562000224565b82601f10620001f357805160ff191683800117855562000224565b8280016001018555821562000224579182015b828111156200022357825182559160200191906001019062000206565b5b50905062000233919062000237565b5090565b5b808211156200025257600081600090555060010162000238565b5090565b7f4e487b7100000000000000000000000000000000000000000000000000000000600052602260045260246000fd5b600060028204905060018216806200029e57607f821691505b602082108103620002b457620002b362000256565b5b50919050565b61346b80620002ca6000396000f3fe6080604052600436106101145760003560e01c8063715018a6116100a0578063b88d4fde11610064578063b88d4fde146103b6578063c87b56dd146103df578063d204c45e1461041c578063e985e9c514610445578063f2fde38b1461048257610114565b8063715018a6146102e35780638da5cb5b146102fa57806395d89b41146103255780639f1cabc614610350578063a22cb4651461038d57610114565b806323b872dd116100e757806323b872dd146101e757806342842e0e14610210578063537efe31146102395780636352211e1461026957806370a08231146102a657610114565b806301ffc9a71461011957806306fdde0314610156578063081812fc14610181578063095ea7b3146101be575b600080fd5b34801561012557600080fd5b50610140600480360381019061013b9190611f99565b6104ab565b60405161014d9190611fe1565b60405180910390f35b34801561016257600080fd5b5061016b61058d565b6040516101789190612095565b60405180910390f35b34801561018d57600080fd5b506101a860048036038101906101a391906120ed565b61061f565b6040516101b5919061215b565b60405180910390f35b3480156101ca57600080fd5b506101e560048036038101906101e091906121a2565b6106a4565b005b3480156101f357600080fd5b5061020e600480360381019061020991906121e2565b6107bb565b005b34801561021c57600080fd5b50610237600480360381019061023291906121e2565b61081b565b005b610253600480360381019061024e919061236a565b61083b565b60405161026091906123c2565b60405180910390f35b34801561027557600080fd5b50610290600480360381019061028b91906120ed565b61096b565b60405161029d919061215b565b60405180910390f35b3480156102b257600080fd5b506102cd60048036038101906102c891906123dd565b610a1c565b6040516102da91906123c2565b60405180910390f35b3480156102ef57600080fd5b506102f8610ad3565b005b34801561030657600080fd5b5061030f610b5b565b60405161031c919061215b565b60405180910390f35b34801561033157600080fd5b5061033a610b85565b6040516103479190612095565b60405180910390f35b34801561035c57600080fd5b506103776004803603810190610372919061236a565b610c17565b6040516103849190611fe1565b60405180910390f35b34801561039957600080fd5b506103b460048036038101906103af9190612436565b610c52565b005b3480156103c257600080fd5b506103dd60048036038101906103d89190612517565b610c68565b005b3480156103eb57600080fd5b50610406600480360381019061040191906120ed565b610cca565b6040516104139190612095565b60405180910390f35b34801561042857600080fd5b50610443600480360381019061043e919061259a565b610cdc565b005b34801561045157600080fd5b5061046c600480360381019061046791906125f6565b610d89565b6040516104799190611fe1565b60405180910390f35b34801561048e57600080fd5b506104a960048036038101906104a491906123dd565b610e1d565b005b60007f80ac58cd000000000000000000000000000000000000000000000000000000007bffffffffffffffffffffffffffffffffffffffffffffffffffffffff1916827bffffffffffffffffffffffffffffffffffffffffffffffffffffffff1916148061057657507f5b5e139f000000000000000000000000000000000000000000000000000000007bffffffffffffffffffffffffffffffffffffffffffffffffffffffff1916827bffffffffffffffffffffffffffffffffffffffffffffffffffffffff1916145b80610586575061058582610f14565b5b9050919050565b60606000805461059c90612665565b80601f01602080910402602001604051908101604052809291908181526020018280546105c890612665565b80156106155780601f106105ea57610100808354040283529160200191610615565b820191906000526020600020905b8154815290600101906020018083116105f857829003601f168201915b5050505050905090565b600061062a82610f7e565b610669576040517f08c379a000000000000000000000000000000000000000000000000000000000815260040161066090612708565b60405180910390fd5b6004600083815260200190815260200160002060009054906101000a900473ffffffffffffffffffffffffffffffffffffffff169050919050565b60006106af8261096b565b90508073ffffffffffffffffffffffffffffffffffffffff168373ffffffffffffffffffffffffffffffffffffffff160361071f576040517f08c379a00000000000000000000000000000000000000000000000000000000081526004016107169061279a565b60405180910390fd5b8073ffffffffffffffffffffffffffffffffffffffff1661073e610fea565b73ffffffffffffffffffffffffffffffffffffffff16148061076d575061076c81610767610fea565b610d89565b5b6107ac576040517f08c379a00000000000000000000000000000000000000000000000000000000081526004016107a39061282c565b60405180910390fd5b6107b68383610ff2565b505050565b6107cc6107c6610fea565b826110ab565b61080b576040517f08c379a0000000000000000000000000000000000000000000000000000000008152600401610802906128be565b60405180910390fd5b610816838383611189565b505050565b61083683838360405180602001604052806000815250610c68565b505050565b600066b1a2bc2ec50000341015610887576040517f08c379a000000000000000000000000000000000000000000000000000000000815260040161087e9061292a565b60405180910390fd5b60016008836040516108999190612986565b908152602001604051809103902060009054906101000a900460ff1660ff16036108f8576040517f08c379a00000000000000000000000000000000000000000000000000000000081526004016108ef906129e9565b60405180910390fd5b6000339050600061090960096113ef565b9050600160088560405161091d9190612986565b908152602001604051809103902060006101000a81548160ff021916908360ff16021790555061094d60096113fd565b6109578282611413565b6109618185611431565b8092505050919050565b6000806002600084815260200190815260200160002060009054906101000a900473ffffffffffffffffffffffffffffffffffffffff169050600073ffffffffffffffffffffffffffffffffffffffff168173ffffffffffffffffffffffffffffffffffffffff1603610a13576040517f08c379a0000000000000000000000000000000000000000000000000000000008152600401610a0a90612a7b565b60405180910390fd5b80915050919050565b60008073ffffffffffffffffffffffffffffffffffffffff168273ffffffffffffffffffffffffffffffffffffffff1603610a8c576040517f08c379a0000000000000000000000000000000000000000000000000000000008152600401610a8390612b0d565b60405180910390fd5b600360008373ffffffffffffffffffffffffffffffffffffffff1673ffffffffffffffffffffffffffffffffffffffff168152602001908152602001600020549050919050565b610adb610fea565b73ffffffffffffffffffffffffffffffffffffffff16610af9610b5b565b73ffffffffffffffffffffffffffffffffffffffff1614610b4f576040517f08c379a0000000000000000000000000000000000000000000000000000000008152600401610b4690612b79565b60405180910390fd5b610b5960006114a5565b565b6000600760009054906101000a900473ffffffffffffffffffffffffffffffffffffffff16905090565b606060018054610b9490612665565b80601f0160208091040260200160405190810160405280929190818152602001828054610bc090612665565b8015610c0d5780601f10610be257610100808354040283529160200191610c0d565b820191906000526020600020905b815481529060010190602001808311610bf057829003601f168201915b5050505050905090565b60006001600883604051610c2b9190612986565b908152602001604051809103902060009054906101000a900460ff1660ff16149050919050565b610c64610c5d610fea565b838361156b565b5050565b610c79610c73610fea565b836110ab565b610cb8576040517f08c379a0000000000000000000000000000000000000000000000000000000008152600401610caf906128be565b60405180910390fd5b610cc4848484846116d7565b50505050565b6060610cd582611733565b9050919050565b610ce4610fea565b73ffffffffffffffffffffffffffffffffffffffff16610d02610b5b565b73ffffffffffffffffffffffffffffffffffffffff1614610d58576040517f08c379a0000000000000000000000000000000000000000000000000000000008152600401610d4f90612b79565b60405180910390fd5b6000610d6460096113ef565b9050610d7060096113fd565b610d7a8382611413565b610d848183611431565b505050565b6000600560008473ffffffffffffffffffffffffffffffffffffffff1673ffffffffffffffffffffffffffffffffffffffff16815260200190815260200160002060008373ffffffffffffffffffffffffffffffffffffffff1673ffffffffffffffffffffffffffffffffffffffff16815260200190815260200160002060009054906101000a900460ff16905092915050565b610e25610fea565b73ffffffffffffffffffffffffffffffffffffffff16610e43610b5b565b73ffffffffffffffffffffffffffffffffffffffff1614610e99576040517f08c379a0000000000000000000000000000000000000000000000000000000008152600401610e9090612b79565b60405180910390fd5b600073ffffffffffffffffffffffffffffffffffffffff168173ffffffffffffffffffffffffffffffffffffffff1603610f08576040517f08c379a0000000000000000000000000000000000000000000000000000000008152600401610eff90612c0b565b60405180910390fd5b610f11816114a5565b50565b60007f01ffc9a7000000000000000000000000000000000000000000000000000000007bffffffffffffffffffffffffffffffffffffffffffffffffffffffff1916827bffffffffffffffffffffffffffffffffffffffffffffffffffffffff1916149050919050565b60008073ffffffffffffffffffffffffffffffffffffffff166002600084815260200190815260200160002060009054906101000a900473ffffffffffffffffffffffffffffffffffffffff1673ffffffffffffffffffffffffffffffffffffffff1614159050919050565b600033905090565b816004600083815260200190815260200160002060006101000a81548173ffffffffffffffffffffffffffffffffffffffff021916908373ffffffffffffffffffffffffffffffffffffffff160217905550808273ffffffffffffffffffffffffffffffffffffffff166110658361096b565b73ffffffffffffffffffffffffffffffffffffffff167f8c5be1e5ebec7d5bd14f71427d1e84f3dd0314c0f7b2291e5b200ac8c7c3b92560405160405180910390a45050565b60006110b682610f7e565b6110f5576040517f08c379a00000000000000000000000000000000000000000000000000000000081526004016110ec90612c9d565b60405180910390fd5b60006111008361096b565b90508073ffffffffffffffffffffffffffffffffffffffff168473ffffffffffffffffffffffffffffffffffffffff16148061116f57508373ffffffffffffffffffffffffffffffffffffffff166111578461061f565b73ffffffffffffffffffffffffffffffffffffffff16145b80611180575061117f8185610d89565b5b91505092915050565b8273ffffffffffffffffffffffffffffffffffffffff166111a98261096b565b73ffffffffffffffffffffffffffffffffffffffff16146111ff576040517f08c379a00000000000000000000000000000000000000000000000000000000081526004016111f690612d2f565b60405180910390fd5b600073ffffffffffffffffffffffffffffffffffffffff168273ffffffffffffffffffffffffffffffffffffffff160361126e576040517f08c379a000000000000000000000000000000000000000000000000000000000815260040161126590612dc1565b60405180910390fd5b611279838383611884565b611284600082610ff2565b6001600360008573ffffffffffffffffffffffffffffffffffffffff1673ffffffffffffffffffffffffffffffffffffffff16815260200190815260200160002060008282546112d49190612e10565b925050819055506001600360008473ffffffffffffffffffffffffffffffffffffffff1673ffffffffffffffffffffffffffffffffffffffff168152602001908152602001600020600082825461132b9190612e44565b92505081905550816002600083815260200190815260200160002060006101000a81548173ffffffffffffffffffffffffffffffffffffffff021916908373ffffffffffffffffffffffffffffffffffffffff160217905550808273ffffffffffffffffffffffffffffffffffffffff168473ffffffffffffffffffffffffffffffffffffffff167fddf252ad1be2c89b69c2b068fc378daa952ba7f163c4a11628f55a4df523b3ef60405160405180910390a46113ea838383611889565b505050565b600081600001549050919050565b6001816000016000828254019250508190555050565b61142d82826040518060200160405280600081525061188e565b5050565b61143a82610f7e565b611479576040517f08c379a000000000000000000000000000000000000000000000000000000000815260040161147090612f0c565b60405180910390fd5b806006600084815260200190815260200160002090805190602001906114a0929190611e8a565b505050565b6000600760009054906101000a900473ffffffffffffffffffffffffffffffffffffffff16905081600760006101000a81548173ffffffffffffffffffffffffffffffffffffffff021916908373ffffffffffffffffffffffffffffffffffffffff1602179055508173ffffffffffffffffffffffffffffffffffffffff168173ffffffffffffffffffffffffffffffffffffffff167f8be0079c531659141344cd1fd0a4f28419497f9722a3daafe3b4186f6b6457e060405160405180910390a35050565b8173ffffffffffffffffffffffffffffffffffffffff168373ffffffffffffffffffffffffffffffffffffffff16036115d9576040517f08c379a00000000000000000000000000000000000000000000000000000000081526004016115d090612f78565b60405180910390fd5b80600560008573ffffffffffffffffffffffffffffffffffffffff1673ffffffffffffffffffffffffffffffffffffffff16815260200190815260200160002060008473ffffffffffffffffffffffffffffffffffffffff1673ffffffffffffffffffffffffffffffffffffffff16815260200190815260200160002060006101000a81548160ff0219169083151502179055508173ffffffffffffffffffffffffffffffffffffffff168373ffffffffffffffffffffffffffffffffffffffff167f17307eab39ab6107e8899845ad3d59bd9653f200f220920489ca2b5937696c31836040516116ca9190611fe1565b60405180910390a3505050565b6116e2848484611189565b6116ee848484846118e9565b61172d576040517f08c379a00000000000000000000000000000000000000000000000000000000081526004016117249061300a565b60405180910390fd5b50505050565b606061173e82610f7e565b61177d576040517f08c379a00000000000000000000000000000000000000000000000000000000081526004016117749061309c565b60405180910390fd5b600060066000848152602001908152602001600020805461179d90612665565b80601f01602080910402602001604051908101604052809291908181526020018280546117c990612665565b80156118165780601f106117eb57610100808354040283529160200191611816565b820191906000526020600020905b8154815290600101906020018083116117f957829003601f168201915b505050505090506000611827611a70565b9050600081510361183c57819250505061187f565b6000825111156118715780826040516020016118599291906130bc565b6040516020818303038152906040529250505061187f565b61187a84611a87565b925050505b919050565b505050565b505050565b6118988383611b2e565b6118a560008484846118e9565b6118e4576040517f08c379a00000000000000000000000000000000000000000000000000000000081526004016118db9061300a565b60405180910390fd5b505050565b600061190a8473ffffffffffffffffffffffffffffffffffffffff16611d07565b15611a63578373ffffffffffffffffffffffffffffffffffffffff1663150b7a02611933610fea565b8786866040518563ffffffff1660e01b81526004016119559493929190613135565b6020604051808303816000875af192505050801561199157506040513d601f19601f8201168201806040525081019061198e9190613196565b60015b611a13573d80600081146119c1576040519150601f19603f3d011682016040523d82523d6000602084013e6119c6565b606091505b506000815103611a0b576040517f08c379a0000000000000000000000000000000000000000000000000000000008152600401611a029061300a565b60405180910390fd5b805181602001fd5b63150b7a0260e01b7bffffffffffffffffffffffffffffffffffffffffffffffffffffffff1916817bffffffffffffffffffffffffffffffffffffffffffffffffffffffff191614915050611a68565b600190505b949350505050565b606060405180602001604052806000815250905090565b6060611a9282610f7e565b611ad1576040517f08c379a0000000000000000000000000000000000000000000000000000000008152600401611ac890613235565b60405180910390fd5b6000611adb611a70565b90506000815111611afb5760405180602001604052806000815250611b26565b80611b0584611d2a565b604051602001611b169291906130bc565b6040516020818303038152906040525b915050919050565b600073ffffffffffffffffffffffffffffffffffffffff168273ffffffffffffffffffffffffffffffffffffffff1603611b9d576040517f08c379a0000000000000000000000000000000000000000000000000000000008152600401611b94906132a1565b60405180910390fd5b611ba681610f7e565b15611be6576040517f08c379a0000000000000000000000000000000000000000000000000000000008152600401611bdd9061330d565b60405180910390fd5b611bf260008383611884565b6001600360008473ffffffffffffffffffffffffffffffffffffffff1673ffffffffffffffffffffffffffffffffffffffff1681526020019081526020016000206000828254611c429190612e44565b92505081905550816002600083815260200190815260200160002060006101000a81548173ffffffffffffffffffffffffffffffffffffffff021916908373ffffffffffffffffffffffffffffffffffffffff160217905550808273ffffffffffffffffffffffffffffffffffffffff16600073ffffffffffffffffffffffffffffffffffffffff167fddf252ad1be2c89b69c2b068fc378daa952ba7f163c4a11628f55a4df523b3ef60405160405180910390a4611d0360008383611889565b5050565b6000808273ffffffffffffffffffffffffffffffffffffffff163b119050919050565b606060008203611d71576040518060400160405280600181526020017f30000000000000000000000000000000000000000000000000000000000000008152509050611e85565b600082905060005b60008214611da3578080611d8c9061332d565b915050600a82611d9c91906133a4565b9150611d79565b60008167ffffffffffffffff811115611dbf57611dbe61223f565b5b6040519080825280601f01601f191660200182016040528015611df15781602001600182028036833780820191505090505b5090505b60008514611e7e57600182611e0a9190612e10565b9150600a85611e1991906133d5565b6030611e259190612e44565b60f81b818381518110611e3b57611e3a613406565b5b60200101907effffffffffffffffffffffffffffffffffffffffffffffffffffffffffffff1916908160001a905350600a85611e7791906133a4565b9450611df5565b8093505050505b919050565b828054611e9690612665565b90600052602060002090601f016020900481019282611eb85760008555611eff565b82601f10611ed157805160ff1916838001178555611eff565b82800160010185558215611eff579182015b82811115611efe578251825591602001919060010190611ee3565b5b509050611f0c9190611f10565b5090565b5b80821115611f29576000816000905550600101611f11565b5090565b6000604051905090565b600080fd5b600080fd5b60007fffffffff0000000000000000000000000000000000000000000000000000000082169050919050565b611f7681611f41565b8114611f8157600080fd5b50565b600081359050611f9381611f6d565b92915050565b600060208284031215611faf57611fae611f37565b5b6000611fbd84828501611f84565b91505092915050565b60008115159050919050565b611fdb81611fc6565b82525050565b6000602082019050611ff66000830184611fd2565b92915050565b600081519050919050565b600082825260208201905092915050565b60005b8381101561203657808201518184015260208101905061201b565b83811115612045576000848401525b50505050565b6000601f19601f8301169050919050565b600061206782611ffc565b6120718185612007565b9350612081818560208601612018565b61208a8161204b565b840191505092915050565b600060208201905081810360008301526120af818461205c565b905092915050565b6000819050919050565b6120ca816120b7565b81146120d557600080fd5b50565b6000813590506120e7816120c1565b92915050565b60006020828403121561210357612102611f37565b5b6000612111848285016120d8565b91505092915050565b600073ffffffffffffffffffffffffffffffffffffffff82169050919050565b60006121458261211a565b9050919050565b6121558161213a565b82525050565b6000602082019050612170600083018461214c565b92915050565b61217f8161213a565b811461218a57600080fd5b50565b60008135905061219c81612176565b92915050565b600080604083850312156121b9576121b8611f37565b5b60006121c78582860161218d565b92505060206121d8858286016120d8565b9150509250929050565b6000806000606084860312156121fb576121fa611f37565b5b60006122098682870161218d565b935050602061221a8682870161218d565b925050604061222b868287016120d8565b9150509250925092565b600080fd5b600080fd5b7f4e487b7100000000000000000000000000000000000000000000000000000000600052604160045260246000fd5b6122778261204b565b810181811067ffffffffffffffff821117156122965761229561223f565b5b80604052505050565b60006122a9611f2d565b90506122b5828261226e565b919050565b600067ffffffffffffffff8211156122d5576122d461223f565b5b6122de8261204b565b9050602081019050919050565b82818337600083830152505050565b600061230d612308846122ba565b61229f565b9050828152602081018484840111156123295761232861223a565b5b6123348482856122eb565b509392505050565b600082601f83011261235157612350612235565b5b81356123618482602086016122fa565b91505092915050565b6000602082840312156123805761237f611f37565b5b600082013567ffffffffffffffff81111561239e5761239d611f3c565b5b6123aa8482850161233c565b91505092915050565b6123bc816120b7565b82525050565b60006020820190506123d760008301846123b3565b92915050565b6000602082840312156123f3576123f2611f37565b5b60006124018482850161218d565b91505092915050565b61241381611fc6565b811461241e57600080fd5b50565b6000813590506124308161240a565b92915050565b6000806040838503121561244d5761244c611f37565b5b600061245b8582860161218d565b925050602061246c85828601612421565b9150509250929050565b600067ffffffffffffffff8211156124915761249061223f565b5b61249a8261204b565b9050602081019050919050565b60006124ba6124b584612476565b61229f565b9050828152602081018484840111156124d6576124d561223a565b5b6124e18482856122eb565b509392505050565b600082601f8301126124fe576124fd612235565b5b813561250e8482602086016124a7565b91505092915050565b6000806000806080858703121561253157612530611f37565b5b600061253f8782880161218d565b94505060206125508782880161218d565b9350506040612561878288016120d8565b925050606085013567ffffffffffffffff81111561258257612581611f3c565b5b61258e878288016124e9565b91505092959194509250565b600080604083850312156125b1576125b0611f37565b5b60006125bf8582860161218d565b925050602083013567ffffffffffffffff8111156125e0576125df611f3c565b5b6125ec8582860161233c565b9150509250929050565b6000806040838503121561260d5761260c611f37565b5b600061261b8582860161218d565b925050602061262c8582860161218d565b9150509250929050565b7f4e487b7100000000000000000000000000000000000000000000000000000000600052602260045260246000fd5b6000600282049050600182168061267d57607f821691505b6020821081036126905761268f612636565b5b50919050565b7f4552433732313a20617070726f76656420717565727920666f72206e6f6e657860008201527f697374656e7420746f6b656e0000000000000000000000000000000000000000602082015250565b60006126f2602c83612007565b91506126fd82612696565b604082019050919050565b60006020820190508181036000830152612721816126e5565b9050919050565b7f4552433732313a20617070726f76616c20746f2063757272656e74206f776e6560008201527f7200000000000000000000000000000000000000000000000000000000000000602082015250565b6000612784602183612007565b915061278f82612728565b604082019050919050565b600060208201905081810360008301526127b381612777565b9050919050565b7f4552433732313a20617070726f76652063616c6c6572206973206e6f74206f7760008201527f6e6572206e6f7220617070726f76656420666f7220616c6c0000000000000000602082015250565b6000612816603883612007565b9150612821826127ba565b604082019050919050565b6000602082019050818103600083015261284581612809565b9050919050565b7f4552433732313a207472616e736665722063616c6c6572206973206e6f74206f60008201527f776e6572206e6f7220617070726f766564000000000000000000000000000000602082015250565b60006128a8603183612007565b91506128b38261284c565b604082019050919050565b600060208201905081810360008301526128d78161289b565b9050919050565b7f796f75206e65656420746f2070617920746f206d696e74000000000000000000600082015250565b6000612914601783612007565b915061291f826128de565b602082019050919050565b6000602082019050818103600083015261294381612907565b9050919050565b600081905092915050565b600061296082611ffc565b61296a818561294a565b935061297a818560208601612018565b80840191505092915050565b60006129928284612955565b915081905092915050565b7f75726920616c7265616479206d696e7465640000000000000000000000000000600082015250565b60006129d3601283612007565b91506129de8261299d565b602082019050919050565b60006020820190508181036000830152612a02816129c6565b9050919050565b7f4552433732313a206f776e657220717565727920666f72206e6f6e657869737460008201527f656e7420746f6b656e0000000000000000000000000000000000000000000000602082015250565b6000612a65602983612007565b9150612a7082612a09565b604082019050919050565b60006020820190508181036000830152612a9481612a58565b9050919050565b7f4552433732313a2062616c616e636520717565727920666f7220746865207a6560008201527f726f206164647265737300000000000000000000000000000000000000000000602082015250565b6000612af7602a83612007565b9150612b0282612a9b565b604082019050919050565b60006020820190508181036000830152612b2681612aea565b9050919050565b7f4f776e61626c653a2063616c6c6572206973206e6f7420746865206f776e6572600082015250565b6000612b63602083612007565b9150612b6e82612b2d565b602082019050919050565b60006020820190508181036000830152612b9281612b56565b9050919050565b7f4f776e61626c653a206e6577206f776e657220697320746865207a65726f206160008201527f6464726573730000000000000000000000000000000000000000000000000000602082015250565b6000612bf5602683612007565b9150612c0082612b99565b604082019050919050565b60006020820190508181036000830152612c2481612be8565b9050919050565b7f4552433732313a206f70657261746f7220717565727920666f72206e6f6e657860008201527f697374656e7420746f6b656e0000000000000000000000000000000000000000602082015250565b6000612c87602c83612007565b9150612c9282612c2b565b604082019050919050565b60006020820190508181036000830152612cb681612c7a565b9050919050565b7f4552433732313a207472616e736665722066726f6d20696e636f72726563742060008201527f6f776e6572000000000000000000000000000000000000000000000000000000602082015250565b6000612d19602583612007565b9150612d2482612cbd565b604082019050919050565b60006020820190508181036000830152612d4881612d0c565b9050919050565b7f4552433732313a207472616e7366657220746f20746865207a65726f2061646460008201527f7265737300000000000000000000000000000000000000000000000000000000602082015250565b6000612dab602483612007565b9150612db682612d4f565b604082019050919050565b60006020820190508181036000830152612dda81612d9e565b9050919050565b7f4e487b7100000000000000000000000000000000000000000000000000000000600052601160045260246000fd5b6000612e1b826120b7565b9150612e26836120b7565b925082821015612e3957612e38612de1565b5b828203905092915050565b6000612e4f826120b7565b9150612e5a836120b7565b9250827fffffffffffffffffffffffffffffffffffffffffffffffffffffffffffffffff03821115612e8f57612e8e612de1565b5b828201905092915050565b7f45524337323155524953746f726167653a2055524920736574206f66206e6f6e60008201527f6578697374656e7420746f6b656e000000000000000000000000000000000000602082015250565b6000612ef6602e83612007565b9150612f0182612e9a565b604082019050919050565b60006020820190508181036000830152612f2581612ee9565b9050919050565b7f4552433732313a20617070726f766520746f2063616c6c657200000000000000600082015250565b6000612f62601983612007565b9150612f6d82612f2c565b602082019050919050565b60006020820190508181036000830152612f9181612f55565b9050919050565b7f4552433732313a207472616e7366657220746f206e6f6e20455243373231526560008201527f63656976657220696d706c656d656e7465720000000000000000000000000000602082015250565b6000612ff4603283612007565b9150612fff82612f98565b604082019050919050565b6000602082019050818103600083015261302381612fe7565b9050919050565b7f45524337323155524953746f726167653a2055524920717565727920666f722060008201527f6e6f6e6578697374656e7420746f6b656e000000000000000000000000000000602082015250565b6000613086603183612007565b91506130918261302a565b604082019050919050565b600060208201905081810360008301526130b581613079565b9050919050565b60006130c88285612955565b91506130d48284612955565b91508190509392505050565b600081519050919050565b600082825260208201905092915050565b6000613107826130e0565b61311181856130eb565b9350613121818560208601612018565b61312a8161204b565b840191505092915050565b600060808201905061314a600083018761214c565b613157602083018661214c565b61316460408301856123b3565b818103606083015261317681846130fc565b905095945050505050565b60008151905061319081611f6d565b92915050565b6000602082840312156131ac576131ab611f37565b5b60006131ba84828501613181565b91505092915050565b7f4552433732314d657461646174613a2055524920717565727920666f72206e6f60008201527f6e6578697374656e7420746f6b656e0000000000000000000000000000000000602082015250565b600061321f602f83612007565b915061322a826131c3565b604082019050919050565b6000602082019050818103600083015261324e81613212565b9050919050565b7f4552433732313a206d696e7420746f20746865207a65726f2061646472657373600082015250565b600061328b602083612007565b915061329682613255565b602082019050919050565b600060208201905081810360008301526132ba8161327e565b9050919050565b7f4552433732313a20746f6b656e20616c7265616479206d696e74656400000000600082015250565b60006132f7601c83612007565b9150613302826132c1565b602082019050919050565b60006020820190508181036000830152613326816132ea565b9050919050565b6000613338826120b7565b91507fffffffffffffffffffffffffffffffffffffffffffffffffffffffffffffffff820361336a57613369612de1565b5b600182019050919050565b7f4e487b7100000000000000000000000000000000000000000000000000000000600052601260045260246000fd5b60006133af826120b7565b91506133ba836120b7565b9250826133ca576133c9613375565b5b828204905092915050565b60006133e0826120b7565b91506133eb836120b7565b9250826133fb576133fa613375565b5b828206905092915050565b7f4e487b7100000000000000000000000000000000000000000000000000000000600052603260045260246000fdfea2646970667358221220a1702bf41a1135e3e44f156979626e1ff06dd7c55e6f06dca3e75fbcd7aab7a764736f6c634300080d0033",
  "immutableReferences": {},
  "source": "// SPDX-License-Identifier: MIT\npragma solidity ^0.8.4;\n\nimport \"@openzeppelin/contracts/token/ERC721/ERC721.sol\";\nimport \"@openzeppelin/contracts/token/ERC721/extensions/ERC721URIStorage.sol\";\nimport \"@openzeppelin/contracts/access/Ownable.sol\";\nimport \"@openzeppelin/contracts/utils/Counters.sol\";\nimport \"hardhat/console.sol\";\n\ncontract Nft is ERC721, ERC721URIStorage, Ownable {\n    using Counters for Counters.Counter;\n    mapping(string => uint8) existingURIs;\n\n    Counters.Counter private _tokenIdCounter;\n\n    constructor() ERC721(\"Nft\", \"Nft\") {}\n\n    // function _baseURI() internal pure override returns (string memory) {\n    //     return \"ipfs://\";\n    // }\n\n    // ============= Function ===================\n    //\n    function safeMint(address to, string memory uri) public onlyOwner {\n        uint256 tokenId = _tokenIdCounter.current();\n        _tokenIdCounter.increment();\n        _safeMint(to, tokenId);\n        _setTokenURI(tokenId, uri);\n    }\n\n    //\n    function payToMint(string memory metadataUri)\n        public\n        payable\n        returns (uint256)\n    {\n        require(msg.value >= 0.05 ether, \"you need to pay to mint\");\n        require(existingURIs[metadataUri] != 1, \"uri already minted\");\n        address sender = msg.sender;\n        uint256 tokenId = _tokenIdCounter.current();\n        existingURIs[metadataUri] = 1;\n        _tokenIdCounter.increment();\n        _safeMint(sender, tokenId);\n        _setTokenURI(tokenId, metadataUri);\n        return tokenId;\n    }\n\n    // The following functions are overrides required by Solidity.\n    //\n    function _burn(uint256 tokenId)\n        internal\n        override(ERC721, ERC721URIStorage)\n    {\n        super._burn(tokenId);\n    }\n\n    //\n    function isContentOwned(string memory uri) public view returns (bool) {\n        return existingURIs[uri] == 1;\n    }\n\n    //\n    function tokenURI(uint256 tokenId)\n        public\n        view\n        override(ERC721, ERC721URIStorage)\n        returns (string memory)\n    {\n        return super.tokenURI(tokenId);\n    }\n}\n",
  "sourcePath": "/Users/pascal/test/solidity-nft/truffle/contracts/Nft.sol",
  "compiler": {
    "name": "solc",
    "version": "0.8.13+commit.abaa5c0e.Emscripten.clang"
  },
  "schemaVersion": "3.4.7",
  "updatedAt": "2022-09-29T20:46:04.815Z",
  "networkType": "ethereum",
  "devdoc": {
    "kind": "dev",
    "methods": {
      "approve(address,uint256)": {
        "details": "See {IERC721-approve}."
      },
      "balanceOf(address)": {
        "details": "See {IERC721-balanceOf}."
      },
      "getApproved(uint256)": {
        "details": "See {IERC721-getApproved}."
      },
      "isApprovedForAll(address,address)": {
        "details": "See {IERC721-isApprovedForAll}."
      },
      "name()": {
        "details": "See {IERC721Metadata-name}."
      },
      "owner()": {
        "details": "Returns the address of the current owner."
      },
      "ownerOf(uint256)": {
        "details": "See {IERC721-ownerOf}."
      },
      "renounceOwnership()": {
        "details": "Leaves the contract without owner. It will not be possible to call `onlyOwner` functions anymore. Can only be called by the current owner. NOTE: Renouncing ownership will leave the contract without an owner, thereby removing any functionality that is only available to the owner."
      },
      "safeTransferFrom(address,address,uint256)": {
        "details": "See {IERC721-safeTransferFrom}."
      },
      "safeTransferFrom(address,address,uint256,bytes)": {
        "details": "See {IERC721-safeTransferFrom}."
      },
      "setApprovalForAll(address,bool)": {
        "details": "See {IERC721-setApprovalForAll}."
      },
      "supportsInterface(bytes4)": {
        "details": "See {IERC165-supportsInterface}."
      },
      "symbol()": {
        "details": "See {IERC721Metadata-symbol}."
      },
      "transferFrom(address,address,uint256)": {
        "details": "See {IERC721-transferFrom}."
      },
      "transferOwnership(address)": {
        "details": "Transfers ownership of the contract to a new account (`newOwner`). Can only be called by the current owner."
      }
    },
    "version": 1
  },
  "userdoc": {
    "kind": "user",
    "methods": {},
    "version": 1
  }
}